{
  "contractName": "ManSys",
  "abi": [
    {
      "constant": true,
      "inputs": [],
      "name": "taskCount",
      "outputs": [
        {
          "name": "",
          "type": "uint256"
        }
      ],
      "payable": false,
      "stateMutability": "view",
      "type": "function"
    }
  ],
  "bytecode": "0x608060405260008055348015601357600080fd5b50609e806100226000396000f3fe608060405260043610603f576000357c0100000000000000000000000000000000000000000000000000000000900463ffffffff168063b6cb58a5146044575b600080fd5b348015604f57600080fd5b506056606c565b6040518082815260200191505060405180910390f35b6000548156fea165627a7a7230582031a4a8fc46fa055ee7c58e4eb925fe42ab49c50781c9e5cb45d96b10fe85fcd50029",
  "source": "pragma solidity ^0.5.0;\r\n\r\ncontract ManSys{\r\n    uint public taskCount = 0;\r\n}\r\n",
  "sourcePath": "C:/harsh/projects/task_management_system/eth-sys/contracts/ManSys.sol",
  "compiler": {
    "name": "solc",
    "version": "0.5.0+commit.1d4f565a.Emscripten.clang"
  },
  "schemaVersion": "3.0.1",
  "updatedAt": "2022-05-11T18:30:30.350Z",
  "devdoc": {
    "methods": {}
  },
  "userdoc": {
    "methods": {}
  }
}