{
  "contractName": "TodoList",
  "abi": [
    {
      "inputs": [],
      "payable": false,
      "stateMutability": "nonpayable",
      "type": "constructor"
    },
    {
      "anonymous": false,
      "inputs": [
        {
          "indexed": false,
          "internalType": "uint256",
          "name": "id",
          "type": "uint256"
        },
        {
          "indexed": false,
          "internalType": "bool",
          "name": "completed",
          "type": "bool"
        }
      ],
      "name": "TaskCompleted",
      "type": "event"
    },
    {
      "anonymous": false,
      "inputs": [
        {
          "indexed": false,
          "internalType": "uint256",
          "name": "id",
          "type": "uint256"
        },
        {
          "indexed": false,
          "internalType": "string",
          "name": "content",
          "type": "string"
        },
        {
          "indexed": false,
          "internalType": "bool",
          "name": "completed",
          "type": "bool"
        },
        {
          "indexed": false,
          "internalType": "string",
          "name": "assigner",
          "type": "string"
        },
        {
          "indexed": false,
          "internalType": "string",
          "name": "assigned_to",
          "type": "string"
        },
        {
          "indexed": false,
          "internalType": "string",
          "name": "deadline",
          "type": "string"
        }
      ],
      "name": "TaskCreated",
      "type": "event"
    },
    {
      "constant": true,
      "inputs": [],
      "name": "taskCount",
      "outputs": [
        {
          "internalType": "uint256",
          "name": "",
          "type": "uint256"
        }
      ],
      "payable": false,
      "stateMutability": "view",
      "type": "function"
    },
    {
      "constant": true,
      "inputs": [
        {
          "internalType": "uint256",
          "name": "",
          "type": "uint256"
        }
      ],
      "name": "tasks",
      "outputs": [
        {
          "internalType": "uint256",
          "name": "id",
          "type": "uint256"
        },
        {
          "internalType": "string",
          "name": "content",
          "type": "string"
        },
        {
          "internalType": "bool",
          "name": "completed",
          "type": "bool"
        },
        {
          "internalType": "string",
          "name": "assigner",
          "type": "string"
        },
        {
          "internalType": "string",
          "name": "assigned_to",
          "type": "string"
        },
        {
          "internalType": "string",
          "name": "deadline",
          "type": "string"
        }
      ],
      "payable": false,
      "stateMutability": "view",
      "type": "function"
    },
    {
      "constant": false,
      "inputs": [
        {
          "internalType": "string",
          "name": "_content",
          "type": "string"
        },
        {
          "internalType": "string",
          "name": "_assigner",
          "type": "string"
        },
        {
          "internalType": "string",
          "name": "_assignedTo",
          "type": "string"
        },
        {
          "internalType": "string",
          "name": "_deadline",
          "type": "string"
        }
      ],
      "name": "createTask",
      "outputs": [],
      "payable": false,
      "stateMutability": "nonpayable",
      "type": "function"
    },
    {
      "constant": false,
      "inputs": [
        {
          "internalType": "uint256",
          "name": "_id",
          "type": "uint256"
        }
      ],
      "name": "toggleCompleted",
      "outputs": [],
      "payable": false,
      "stateMutability": "nonpayable",
      "type": "function"
    }
  ],
  "bytecode": "0x6080604052600080553480156200001557600080fd5b50620000a66040518060400160405280600781526020016605461736b2023360cc1b815250604051806040016040528060058152602001640d0c2e4e6d60db1b815250604051806040016040528060048152602001631b59595d60e21b8152506040518060400160405280600c81526020016b191990253ab732901918191960a11b815250620000ac60201b60201c565b62000422565b6000805460019081018083556040805160c08101825282815260208082018a8152828401879052606083018a90526080830189905260a08301889052938652848152919094208451815591518051929362000110939085019291909101906200037d565b50604082015160028201805460ff191691151591909117905560608201518051620001469160038401916020909101906200037d565b5060808201518051620001649160048401916020909101906200037d565b5060a08201518051620001829160058401916020909101906200037d565b509050507f61e0e3fadfff8b72bc036e57db6902b9bf2e52e6c623828693d4634c5e8cc47360005485600086868660405180878152602001806020018615151515815260200180602001806020018060200185810385528a818151815260200191508051906020019080838360005b838110156200020b578181015183820152602001620001f1565b50505050905090810190601f168015620002395780820380516001836020036101000a031916815260200191505b5085810384528851815288516020918201918a019080838360005b838110156200026e57818101518382015260200162000254565b50505050905090810190601f1680156200029c5780820380516001836020036101000a031916815260200191505b50858103835287518152875160209182019189019080838360005b83811015620002d1578181015183820152602001620002b7565b50505050905090810190601f168015620002ff5780820380516001836020036101000a031916815260200191505b50858103825286518152865160209182019188019080838360005b83811015620003345781810151838201526020016200031a565b50505050905090810190601f168015620003625780820380516001836020036101000a031916815260200191505b509a505050505050505050505060405180910390a150505050565b828054600181600116156101000203166002900490600052602060002090601f016020900481019282601f10620003c057805160ff1916838001178555620003f0565b82800160010185558215620003f0579182015b82811115620003f0578251825591602001919060010190620003d3565b50620003fe92915062000402565b5090565b6200041f91905b80821115620003fe576000815560010162000409565b90565b610e3780620004326000396000f3fe608060405234801561001057600080fd5b506004361061004c5760003560e01c8063455f50241461005157806372a9f819146100705780638d977672146102a3578063b6cb58a51461047c575b600080fd5b61006e6004803603602081101561006757600080fd5b5035610496565b005b61006e6004803603608081101561008657600080fd5b810190602081018135600160201b8111156100a057600080fd5b8201836020820111156100b257600080fd5b803590602001918460018302840111600160201b831117156100d357600080fd5b91908080601f0160208091040260200160405190810160405280939291908181526020018383808284376000920191909152509295949360208101935035915050600160201b81111561012557600080fd5b82018360208201111561013757600080fd5b803590602001918460018302840111600160201b8311171561015857600080fd5b91908080601f0160208091040260200160405190810160405280939291908181526020018383808284376000920191909152509295949360208101935035915050600160201b8111156101aa57600080fd5b8201836020820111156101bc57600080fd5b803590602001918460018302840111600160201b831117156101dd57600080fd5b91908080601f0160208091040260200160405190810160405280939291908181526020018383808284376000920191909152509295949360208101935035915050600160201b81111561022f57600080fd5b82018360208201111561024157600080fd5b803590602001918460018302840111600160201b8311171561026257600080fd5b91908080601f01602080910402602001604051908101604052809392919081815260200183838082843760009201919091525092955061080a945050505050565b6102c0600480360360208110156102b957600080fd5b5035610ac7565b60405180878152602001806020018615151515815260200180602001806020018060200185810385528a818151815260200191508051906020019080838360005b83811015610319578181015183820152602001610301565b50505050905090810190601f1680156103465780820380516001836020036101000a031916815260200191505b5085810384528851815288516020918201918a019080838360005b83811015610379578181015183820152602001610361565b50505050905090810190601f1680156103a65780820380516001836020036101000a031916815260200191505b50858103835287518152875160209182019189019080838360005b838110156103d95781810151838201526020016103c1565b50505050905090810190601f1680156104065780820380516001836020036101000a031916815260200191505b50858103825286518152865160209182019188019080838360005b83811015610439578181015183820152602001610421565b50505050905090810190601f1680156104665780820380516001836020036101000a031916815260200191505b509a505050505050505050505060405180910390f35b610484610d29565b60408051918252519081900360200190f35b61049e610d2f565b600082815260016020818152604092839020835160c0810185528154815281840180548651600296821615610100026000190190911695909504601f810185900485028601850190965285855290949193858401939092908301828280156105475780601f1061051c57610100808354040283529160200191610547565b820191906000526020600020905b81548152906001019060200180831161052a57829003601f168201915b505050918352505060028281015460ff16151560208084019190915260038401805460408051601f600019600185161561010002019093169590950491820184900484028501840181528185529094019390918301828280156105eb5780601f106105c0576101008083540402835291602001916105eb565b820191906000526020600020905b8154815290600101906020018083116105ce57829003601f168201915b505050918352505060048201805460408051602060026001851615610100026000190190941693909304601f810184900484028201840190925281815293820193929183018282801561067f5780601f106106545761010080835404028352916020019161067f565b820191906000526020600020905b81548152906001019060200180831161066257829003601f168201915b505050918352505060058201805460408051602060026001851615610100026000190190941693909304601f81018490048402820184019092528181529382019392918301828280156107135780601f106106e857610100808354040283529160200191610713565b820191906000526020600020905b8154815290600101906020018083116106f657829003601f168201915b505050919092525050506040808201805115905260008481526001602081815292909120835181558284015180519495508594919361075793850192910190610d67565b50604082015160028201805460ff19169115159190911790556060820151805161078b916003840191602090910190610d67565b50608082015180516107a7916004840191602090910190610d67565b5060a082015180516107c3916005840191602090910190610d67565b5050506040808201518151848152901515602082015281517fe21fa966ca5cd02748c0752352d18c48165e61cb55b4c29cccf924b5a95fcff1929181900390910190a15050565b6000805460019081018083556040805160c08101825282815260208082018a8152828401879052606083018a90526080830189905260a08301889052938652848152919094208451815591518051929361086c93908501929190910190610d67565b50604082015160028201805460ff1916911515919091179055606082015180516108a0916003840191602090910190610d67565b50608082015180516108bc916004840191602090910190610d67565b5060a082015180516108d8916005840191602090910190610d67565b509050507f61e0e3fadfff8b72bc036e57db6902b9bf2e52e6c623828693d4634c5e8cc47360005485600086868660405180878152602001806020018615151515815260200180602001806020018060200185810385528a818151815260200191508051906020019080838360005b8381101561095f578181015183820152602001610947565b50505050905090810190601f16801561098c5780820380516001836020036101000a031916815260200191505b5085810384528851815288516020918201918a019080838360005b838110156109bf5781810151838201526020016109a7565b50505050905090810190601f1680156109ec5780820380516001836020036101000a031916815260200191505b50858103835287518152875160209182019189019080838360005b83811015610a1f578181015183820152602001610a07565b50505050905090810190601f168015610a4c5780820380516001836020036101000a031916815260200191505b50858103825286518152865160209182019188019080838360005b83811015610a7f578181015183820152602001610a67565b50505050905090810190601f168015610aac5780820380516001836020036101000a031916815260200191505b509a505050505050505050505060405180910390a150505050565b600160208181526000928352604092839020805481840180548651600296821615610100026000190190911695909504601f81018590048502860185019096528585529094919392909190830182828015610b635780601f10610b3857610100808354040283529160200191610b63565b820191906000526020600020905b815481529060010190602001808311610b4657829003601f168201915b505050506002838101546003850180546040805160206101006001851615026000190190931695909504601f8101839004830286018301909152808552959660ff90931695929450909190830182828015610bff5780601f10610bd457610100808354040283529160200191610bff565b820191906000526020600020905b815481529060010190602001808311610be257829003601f168201915b5050505060048301805460408051602060026001851615610100026000190190941693909304601f8101849004840282018401909252818152949594935090830182828015610c8f5780601f10610c6457610100808354040283529160200191610c8f565b820191906000526020600020905b815481529060010190602001808311610c7257829003601f168201915b5050505060058301805460408051602060026001851615610100026000190190941693909304601f8101849004840282018401909252818152949594935090830182828015610d1f5780601f10610cf457610100808354040283529160200191610d1f565b820191906000526020600020905b815481529060010190602001808311610d0257829003601f168201915b5050505050905086565b60005481565b6040518060c0016040528060008152602001606081526020016000151581526020016060815260200160608152602001606081525090565b828054600181600116156101000203166002900490600052602060002090601f016020900481019282601f10610da857805160ff1916838001178555610dd5565b82800160010185558215610dd5579182015b82811115610dd5578251825591602001919060010190610dba565b50610de1929150610de5565b5090565b610dff91905b80821115610de15760008155600101610deb565b9056fea265627a7a7231582047fed352abab34a87015b5c34c67062616dce87724c55347bfdc62cb76d43f0264736f6c63430005100032",
  "source": "pragma solidity ^0.5.16;\n\ncontract TodoList{\n    uint public taskCount = 0;\n\n    struct Task{\n        uint id;\n        string content;\n        bool completed;\n        //need to be updated\n        string assigner;\n        string assigned_to;\n        string deadline;\n        // uint timestamp;\n        // uint timeRemaining;\n    }\n\n    mapping (uint=> Task) public tasks;\n\n    event TaskCreated(\n        uint id,\n        string content,\n        bool completed,\n        string assigner,\n        string assigned_to,\n        string deadline\n    );\n\n    event TaskCompleted(\n        uint id,\n        bool completed\n    );\n\n    constructor() public{\n        createTask(\"Task #0\",\"harsh\",\"meet\",\"23 June 2022\");\n        // createTask(\"harsh 2\");\n    }\n\n    function createTask(string memory _content, string memory _assigner,string memory _assignedTo, string memory _deadline) public{\n        taskCount++;\n        tasks[taskCount] = Task(taskCount,_content,false,_assigner,_assignedTo,_deadline);\n        emit TaskCreated(taskCount,_content,false,_assigner,_assignedTo,_deadline);\n    }\n\n    function toggleCompleted (uint _id) public{\n        Task memory _task = tasks[_id];\n        _task.completed = !_task.completed;\n        tasks[_id] = _task;\n        emit TaskCompleted(_id, _task.completed);\n    }\n\n}",
  "sourcePath": "/home/harsh/harsh/project/TMS/task_manage_blockchain/eth-todo-list/contracts/TodoList.sol",
  "compiler": {
    "name": "solc",
    "version": "0.5.16+commit.9c3226ce.Emscripten.clang"
  },
  "schemaVersion": "3.4.8",
  "updatedAt": "2022-07-03T07:03:18.084Z",
  "devdoc": {
    "methods": {}
  },
  "userdoc": {
    "methods": {}
  }
}