{
  "contractName": "TodoList",
  "abi": [
    {
      "constant": true,
      "inputs": [
        {
          "name": "",
          "type": "uint256"
        }
      ],
      "name": "tasks",
      "outputs": [
        {
          "name": "id",
          "type": "uint256"
        },
        {
          "name": "content",
          "type": "string"
        },
        {
          "name": "completed",
          "type": "bool"
        },
        {
          "name": "assignee",
          "type": "string"
        },
        {
          "name": "assigned_to",
          "type": "string"
        },
        {
          "name": "deadline",
          "type": "string"
        }
      ],
      "payable": false,
      "stateMutability": "view",
      "type": "function",
      "signature": "0x8d977672"
    },
    {
      "constant": true,
      "inputs": [],
      "name": "taskCount",
      "outputs": [
        {
          "name": "",
          "type": "uint256"
        }
      ],
      "payable": false,
      "stateMutability": "view",
      "type": "function",
      "signature": "0xb6cb58a5"
    },
    {
      "inputs": [],
      "payable": false,
      "stateMutability": "nonpayable",
      "type": "constructor",
      "signature": "constructor"
    },
    {
      "anonymous": false,
      "inputs": [
        {
          "indexed": false,
          "name": "id",
          "type": "uint256"
        },
        {
          "indexed": false,
          "name": "content",
          "type": "string"
        },
        {
          "indexed": false,
          "name": "completed",
          "type": "bool"
        }
      ],
      "name": "TaskCreated",
      "type": "event",
      "signature": "0x05d0fb833127fc08168556d0e7ca9554fc3f6bc843b3b7d2bf1c35aea6bab660"
    },
    {
      "anonymous": false,
      "inputs": [
        {
          "indexed": false,
          "name": "id",
          "type": "uint256"
        },
        {
          "indexed": false,
          "name": "completed",
          "type": "bool"
        }
      ],
      "name": "TaskCompleted",
      "type": "event",
      "signature": "0xe21fa966ca5cd02748c0752352d18c48165e61cb55b4c29cccf924b5a95fcff1"
    },
    {
      "constant": false,
      "inputs": [
        {
          "name": "_content",
          "type": "string"
        },
        {
          "name": "_assigner",
          "type": "string"
        },
        {
          "name": "_assignedTo",
          "type": "string"
        },
        {
          "name": "_deadline",
          "type": "string"
        }
      ],
      "name": "createTask",
      "outputs": [],
      "payable": false,
      "stateMutability": "nonpayable",
      "type": "function",
      "signature": "0x72a9f819"
    },
    {
      "constant": false,
      "inputs": [
        {
          "name": "_id",
          "type": "uint256"
        }
      ],
      "name": "toggleCompleted",
      "outputs": [],
      "payable": false,
      "stateMutability": "nonpayable",
      "type": "function",
      "signature": "0x455f5024"
    }
  ],
  "bytecode": "0x6080604052600080553480156200001557600080fd5b50620001076040805190810160405280600781526020017f5461736b202330000000000000000000000000000000000000000000000000008152506040805190810160405280600581526020017f68617273680000000000000000000000000000000000000000000000000000008152506040805190810160405280600481526020017f6d656574000000000000000000000000000000000000000000000000000000008152506040805190810160405280600c81526020017f3233204a756e65203230323200000000000000000000000000000000000000008152506200010d640100000000026401000000009004565b62000291565b6000805460019081018083556040805160c08101825282815260208082018a8152828401879052606083018a90526080830189905260a0830188905293865284815291909420845181559151805192936200017193908501929190910190620001ec565b50604082015160028201805460ff191691151591909117905560608201518051620001a7916003840191602090910190620001ec565b5060808201518051620001c5916004840191602090910190620001ec565b5060a08201518051620001e3916005840191602090910190620001ec565b50505050505050565b828054600181600116156101000203166002900490600052602060002090601f016020900481019282601f106200022f57805160ff19168380011785556200025f565b828001600101855582156200025f579182015b828111156200025f57825182559160200191906001019062000242565b506200026d92915062000271565b5090565b6200028e91905b808211156200026d576000815560010162000278565b90565b610c5a80620002a16000396000f3fe6080604052600436106100615763ffffffff7c0100000000000000000000000000000000000000000000000000000000600035041663455f5024811461006657806372a9f819146100925780638d977672146102da578063b6cb58a5146104c0575b600080fd5b34801561007257600080fd5b506100906004803603602081101561008957600080fd5b50356104e7565b005b34801561009e57600080fd5b50610090600480360360808110156100b557600080fd5b8101906020810181356401000000008111156100d057600080fd5b8201836020820111156100e257600080fd5b8035906020019184600183028401116401000000008311171561010457600080fd5b91908080601f016020809104026020016040519081016040528093929190818152602001838380828437600092019190915250929594936020810193503591505064010000000081111561015757600080fd5b82018360208201111561016957600080fd5b8035906020019184600183028401116401000000008311171561018b57600080fd5b91908080601f01602080910402602001604051908101604052809392919081815260200183838082843760009201919091525092959493602081019350359150506401000000008111156101de57600080fd5b8201836020820111156101f057600080fd5b8035906020019184600183028401116401000000008311171561021257600080fd5b91908080601f016020809104026020016040519081016040528093929190818152602001838380828437600092019190915250929594936020810193503591505064010000000081111561026557600080fd5b82018360208201111561027757600080fd5b8035906020019184600183028401116401000000008311171561029957600080fd5b91908080601f01602080910402602001604051908101604052809392919081815260200183838082843760009201919091525092955061081b945050505050565b3480156102e657600080fd5b50610304600480360360208110156102fd57600080fd5b50356108f2565b60405180878152602001806020018615151515815260200180602001806020018060200185810385528a818151815260200191508051906020019080838360005b8381101561035d578181015183820152602001610345565b50505050905090810190601f16801561038a5780820380516001836020036101000a031916815260200191505b5085810384528851815288516020918201918a019080838360005b838110156103bd5781810151838201526020016103a5565b50505050905090810190601f1680156103ea5780820380516001836020036101000a031916815260200191505b50858103835287518152875160209182019189019080838360005b8381101561041d578181015183820152602001610405565b50505050905090810190601f16801561044a5780820380516001836020036101000a031916815260200191505b50858103825286518152865160209182019188019080838360005b8381101561047d578181015183820152602001610465565b50505050905090810190601f1680156104aa5780820380516001836020036101000a031916815260200191505b509a505050505050505050505060405180910390f35b3480156104cc57600080fd5b506104d5610b54565b60408051918252519081900360200190f35b6104ef610b5a565b600082815260016020818152604092839020835160c0810185528154815281840180548651600296821615610100026000190190911695909504601f810185900485028601850190965285855290949193858401939092908301828280156105985780601f1061056d57610100808354040283529160200191610598565b820191906000526020600020905b81548152906001019060200180831161057b57829003601f168201915b505050918352505060028281015460ff16151560208084019190915260038401805460408051601f6000196001851615610100020190931695909504918201849004840285018401815281855290940193909183018282801561063c5780601f106106115761010080835404028352916020019161063c565b820191906000526020600020905b81548152906001019060200180831161061f57829003601f168201915b505050918352505060048201805460408051602060026001851615610100026000190190941693909304601f81018490048402820184019092528181529382019392918301828280156106d05780601f106106a5576101008083540402835291602001916106d0565b820191906000526020600020905b8154815290600101906020018083116106b357829003601f168201915b505050918352505060058201805460408051602060026001851615610100026000190190941693909304601f81018490048402820184019092528181529382019392918301828280156107645780601f1061073957610100808354040283529160200191610764565b820191906000526020600020905b81548152906001019060200180831161074757829003601f168201915b50505091909252505050604080820180511590526000848152600160208181529290912083518155828401518051949550859491936107a893850192910190610b93565b50604082015160028201805460ff1916911515919091179055606082015180516107dc916003840191602090910190610b93565b50608082015180516107f8916004840191602090910190610b93565b5060a08201518051610814916005840191602090910190610b93565b5050505050565b6000805460019081018083556040805160c08101825282815260208082018a8152828401879052606083018a90526080830189905260a08301889052938652848152919094208451815591518051929361087d93908501929190910190610b93565b50604082015160028201805460ff1916911515919091179055606082015180516108b1916003840191602090910190610b93565b50608082015180516108cd916004840191602090910190610b93565b5060a082015180516108e9916005840191602090910190610b93565b50505050505050565b600160208181526000928352604092839020805481840180548651600296821615610100026000190190911695909504601f8101859004850286018501909652858552909491939290919083018282801561098e5780601f106109635761010080835404028352916020019161098e565b820191906000526020600020905b81548152906001019060200180831161097157829003601f168201915b505050506002838101546003850180546040805160206101006001851615026000190190931695909504601f8101839004830286018301909152808552959660ff90931695929450909190830182828015610a2a5780601f106109ff57610100808354040283529160200191610a2a565b820191906000526020600020905b815481529060010190602001808311610a0d57829003601f168201915b5050505060048301805460408051602060026001851615610100026000190190941693909304601f8101849004840282018401909252818152949594935090830182828015610aba5780601f10610a8f57610100808354040283529160200191610aba565b820191906000526020600020905b815481529060010190602001808311610a9d57829003601f168201915b5050505060058301805460408051602060026001851615610100026000190190941693909304601f8101849004840282018401909252818152949594935090830182828015610b4a5780601f10610b1f57610100808354040283529160200191610b4a565b820191906000526020600020905b815481529060010190602001808311610b2d57829003601f168201915b5050505050905086565b60005481565b60c06040519081016040528060008152602001606081526020016000151581526020016060815260200160608152602001606081525090565b828054600181600116156101000203166002900490600052602060002090601f016020900481019282601f10610bd457805160ff1916838001178555610c01565b82800160010185558215610c01579182015b82811115610c01578251825591602001919060010190610be6565b50610c0d929150610c11565b5090565b610c2b91905b80821115610c0d5760008155600101610c17565b9056fea165627a7a723058208c1742dd81406fdf3e2710b66c5066f1db4798fc39fdb4ad6fb447f5257a964b0029",
  "source": "pragma solidity ^0.5.0;\r\n\r\ncontract TodoList{\r\n    uint public taskCount = 0;\r\n\r\n    struct Task{\r\n        uint id;\r\n        string content;\r\n        bool completed;\r\n        //need to be updated\r\n        string assignee;\r\n        string assigned_to;\r\n        string deadline;\r\n        // uint timestamp;\r\n        // uint timeRemaining;\r\n    }\r\n\r\n    mapping (uint=> Task) public tasks;\r\n\r\n    event TaskCreated(\r\n        uint id,\r\n        string content,\r\n        bool completed\r\n    );\r\n\r\n    event TaskCompleted(\r\n        uint id,\r\n        bool completed\r\n    );\r\n\r\n    constructor() public{\r\n        createTask(\"Task #0\",\"harsh\",\"meet\",\"23 June 2022\");\r\n        // createTask(\"harsh 2\");\r\n    }\r\n\r\n    function createTask(string memory _content, string memory _assigner,string memory _assignedTo, string memory _deadline) public{\r\n        taskCount++;\r\n        tasks[taskCount] = Task(taskCount,_content,false,_assigner,_assignedTo,_deadline);\r\n        // emit TaskCreated(taskCount,_content,false);\r\n    }\r\n\r\n    function toggleCompleted (uint _id) public{\r\n        Task memory _task = tasks[_id];\r\n        _task.completed = !_task.completed;\r\n        tasks[_id] = _task;\r\n        // emit TaskCompleted(_id, _task.completed);\r\n    }\r\n\r\n}",
  "sourcePath": "C:/harsh/projects/task_management_system/eth-todo-list/contracts/TodoList.sol",
  "compiler": {
    "name": "solc",
    "version": "0.5.0+commit.1d4f565a.Emscripten.clang"
  },
  "schemaVersion": "3.0.1",
  "updatedAt": "2022-06-18T11:00:44.718Z",
  "devdoc": {
    "methods": {}
  },
  "userdoc": {
    "methods": {}
  }
}